{
  "_format": "hh-sol-artifact-1",
  "contractName": "DebateContract",
  "sourceName": "contracts/DebateContract.sol",
  "abi": [
    {
      "anonymous": false,
      "inputs": [
        {
          "indexed": true,
          "internalType": "uint256",
          "name": "debateId",
          "type": "uint256"
        },
        {
          "indexed": false,
          "internalType": "uint8",
          "name": "winner",
          "type": "uint8"
        }
      ],
      "name": "DebateCertified",
      "type": "event"
    },
    {
      "anonymous": false,
      "inputs": [
        {
          "indexed": true,
          "internalType": "uint256",
          "name": "debateId",
          "type": "uint256"
        },
        {
          "indexed": true,
          "internalType": "address",
          "name": "creator",
          "type": "address"
        },
        {
          "indexed": false,
          "internalType": "string",
          "name": "topic",
          "type": "string"
        }
      ],
      "name": "DebateCreated",
      "type": "event"
    },
    {
      "inputs": [
        {
          "internalType": "uint256",
          "name": "debateId",
          "type": "uint256"
        },
        {
          "internalType": "uint8",
          "name": "winner",
          "type": "uint8"
        }
      ],
      "name": "certifyResult",
      "outputs": [],
      "stateMutability": "nonpayable",
      "type": "function"
    },
    {
      "inputs": [
        {
          "internalType": "string",
          "name": "_topic",
          "type": "string"
        }
      ],
      "name": "createDebate",
      "outputs": [
        {
          "internalType": "uint256",
          "name": "",
          "type": "uint256"
        }
      ],
      "stateMutability": "nonpayable",
      "type": "function"
    },
    {
      "inputs": [
        {
          "internalType": "uint256",
          "name": "",
          "type": "uint256"
        }
      ],
      "name": "debates",
      "outputs": [
        {
          "internalType": "address",
          "name": "creator",
          "type": "address"
        },
        {
          "internalType": "string",
          "name": "topic",
          "type": "string"
        },
        {
          "internalType": "uint8",
          "name": "winner",
          "type": "uint8"
        },
        {
          "internalType": "bool",
          "name": "isCertified",
          "type": "bool"
        }
      ],
      "stateMutability": "view",
      "type": "function"
    },
    {
      "inputs": [],
      "name": "getDebateCount",
      "outputs": [
        {
          "internalType": "uint256",
          "name": "",
          "type": "uint256"
        }
      ],
      "stateMutability": "view",
      "type": "function"
    },
    {
      "inputs": [
        {
          "internalType": "uint256",
          "name": "debateId",
          "type": "uint256"
        }
      ],
      "name": "getDebateResult",
      "outputs": [
        {
          "internalType": "string",
          "name": "",
          "type": "string"
        }
      ],
      "stateMutability": "view",
      "type": "function"
    }
  ],
  "bytecode": "0x6080604052348015600f57600080fd5b506111508061001f6000396000f3fe608060405234801561001057600080fd5b50600436106100575760003560e01c80633eca0e491461005c57806359758fcf1461008c57806385d328a0146100bf578063b688a941146100dd578063e4a92df1146100f9575b600080fd5b6100766004803603810190610071919061092f565b610129565b6040516100839190610991565b60405180910390f35b6100a660048036038101906100a191906109d8565b6102da565b6040516100b69493929190610afc565b60405180910390f35b6100c76103dc565b6040516100d49190610991565b60405180910390f35b6100f760048036038101906100f29190610b74565b6103e8565b005b610113600480360381019061010e91906109d8565b610661565b6040516101209190610bb4565b60405180910390f35b6000606482511115610170576040517f08c379a000000000000000000000000000000000000000000000000000000000815260040161016790610c22565b60405180910390fd5b600080805490509050600060405180608001604052803373ffffffffffffffffffffffffffffffffffffffff168152602001858152602001600060ff16815260200160001515815250908060018154018082558091505060019003906000526020600020906003020160009091909190915060008201518160000160006101000a81548173ffffffffffffffffffffffffffffffffffffffff021916908373ffffffffffffffffffffffffffffffffffffffff160217905550602082015181600101908161023e9190610e4e565b5060408201518160020160006101000a81548160ff021916908360ff16021790555060608201518160020160016101000a81548160ff02191690831515021790555050503373ffffffffffffffffffffffffffffffffffffffff16817f6308cca078f32101ca9ecfb28c5e8363b5805a240f37109b0ea72c847710b756856040516102c99190610bb4565b60405180910390a380915050919050565b600081815481106102ea57600080fd5b90600052602060002090600302016000915090508060000160009054906101000a900473ffffffffffffffffffffffffffffffffffffffff169080600101805461033390610c71565b80601f016020809104026020016040519081016040528092919081815260200182805461035f90610c71565b80156103ac5780601f10610381576101008083540402835291602001916103ac565b820191906000526020600020905b81548152906001019060200180831161038f57829003601f168201915b5050505050908060020160009054906101000a900460ff16908060020160019054906101000a900460ff16905084565b60008080549050905090565b600080549050821061042f576040517f08c379a000000000000000000000000000000000000000000000000000000000815260040161042690610f6c565b60405180910390fd5b6000828154811061044357610442610f8c565b5b906000526020600020906003020160000160009054906101000a900473ffffffffffffffffffffffffffffffffffffffff1673ffffffffffffffffffffffffffffffffffffffff163373ffffffffffffffffffffffffffffffffffffffff16146104e2576040517f08c379a00000000000000000000000000000000000000000000000000000000081526004016104d990611007565b60405180910390fd5b60018160ff1614806104f7575060028160ff16145b610536576040517f08c379a000000000000000000000000000000000000000000000000000000000815260040161052d90611073565b60405180910390fd5b6000828154811061054a57610549610f8c565b5b906000526020600020906003020160020160019054906101000a900460ff16156105a9576040517f08c379a00000000000000000000000000000000000000000000000000000000081526004016105a0906110df565b60405180910390fd5b80600083815481106105be576105bd610f8c565b5b906000526020600020906003020160020160006101000a81548160ff021916908360ff1602179055506001600083815481106105fd576105fc610f8c565b5b906000526020600020906003020160020160016101000a81548160ff021916908315150217905550817fa68ba96dd0068601177128a474f4a566dd76eb101fe2fcf8659b582daf65c1648260405161065591906110ff565b60405180910390a25050565b606060008054905082106106aa576040517f08c379a00000000000000000000000000000000000000000000000000000000081526004016106a190610f6c565b60405180910390fd5b600082815481106106be576106bd610f8c565b5b906000526020600020906003020160020160019054906101000a900460ff1661071e576040518060400160405280600d81526020017f4e6f74206365727469666965640000000000000000000000000000000000000081525090506107d0565b60016000838154811061073457610733610f8c565b5b906000526020600020906003020160020160009054906101000a900460ff1660ff1614610796576040518060400160405280601281526020017f5061727469636970616e7420322077696e7300000000000000000000000000008152506107cd565b6040518060400160405280601281526020017f5061727469636970616e7420312077696e7300000000000000000000000000008152505b90505b919050565b6000604051905090565b600080fd5b600080fd5b600080fd5b600080fd5b6000601f19601f8301169050919050565b7f4e487b7100000000000000000000000000000000000000000000000000000000600052604160045260246000fd5b61083c826107f3565b810181811067ffffffffffffffff8211171561085b5761085a610804565b5b80604052505050565b600061086e6107d5565b905061087a8282610833565b919050565b600067ffffffffffffffff82111561089a57610899610804565b5b6108a3826107f3565b9050602081019050919050565b82818337600083830152505050565b60006108d26108cd8461087f565b610864565b9050828152602081018484840111156108ee576108ed6107ee565b5b6108f98482856108b0565b509392505050565b600082601f830112610916576109156107e9565b5b81356109268482602086016108bf565b91505092915050565b600060208284031215610945576109446107df565b5b600082013567ffffffffffffffff811115610963576109626107e4565b5b61096f84828501610901565b91505092915050565b6000819050919050565b61098b81610978565b82525050565b60006020820190506109a66000830184610982565b92915050565b6109b581610978565b81146109c057600080fd5b50565b6000813590506109d2816109ac565b92915050565b6000602082840312156109ee576109ed6107df565b5b60006109fc848285016109c3565b91505092915050565b600073ffffffffffffffffffffffffffffffffffffffff82169050919050565b6000610a3082610a05565b9050919050565b610a4081610a25565b82525050565b600081519050919050565b600082825260208201905092915050565b60005b83811015610a80578082015181840152602081019050610a65565b60008484015250505050565b6000610a9782610a46565b610aa18185610a51565b9350610ab1818560208601610a62565b610aba816107f3565b840191505092915050565b600060ff82169050919050565b610adb81610ac5565b82525050565b60008115159050919050565b610af681610ae1565b82525050565b6000608082019050610b116000830187610a37565b8181036020830152610b238186610a8c565b9050610b326040830185610ad2565b610b3f6060830184610aed565b95945050505050565b610b5181610ac5565b8114610b5c57600080fd5b50565b600081359050610b6e81610b48565b92915050565b60008060408385031215610b8b57610b8a6107df565b5b6000610b99858286016109c3565b9250506020610baa85828601610b5f565b9150509250929050565b60006020820190508181036000830152610bce8184610a8c565b905092915050565b7f546f70696320746f6f206c6f6e67000000000000000000000000000000000000600082015250565b6000610c0c600e83610a51565b9150610c1782610bd6565b602082019050919050565b60006020820190508181036000830152610c3b81610bff565b9050919050565b7f4e487b7100000000000000000000000000000000000000000000000000000000600052602260045260246000fd5b60006002820490506001821680610c8957607f821691505b602082108103610c9c57610c9b610c42565b5b50919050565b60008190508160005260206000209050919050565b60006020601f8301049050919050565b600082821b905092915050565b600060088302610d047fffffffffffffffffffffffffffffffffffffffffffffffffffffffffffffffff82610cc7565b610d0e8683610cc7565b95508019841693508086168417925050509392505050565b6000819050919050565b6000610d4b610d46610d4184610978565b610d26565b610978565b9050919050565b6000819050919050565b610d6583610d30565b610d79610d7182610d52565b848454610cd4565b825550505050565b600090565b610d8e610d81565b610d99818484610d5c565b505050565b5b81811015610dbd57610db2600082610d86565b600181019050610d9f565b5050565b601f821115610e0257610dd381610ca2565b610ddc84610cb7565b81016020851015610deb578190505b610dff610df785610cb7565b830182610d9e565b50505b505050565b600082821c905092915050565b6000610e2560001984600802610e07565b1980831691505092915050565b6000610e3e8383610e14565b9150826002028217905092915050565b610e5782610a46565b67ffffffffffffffff811115610e7057610e6f610804565b5b610e7a8254610c71565b610e85828285610dc1565b600060209050601f831160018114610eb85760008415610ea6578287015190505b610eb08582610e32565b865550610f18565b601f198416610ec686610ca2565b60005b82811015610eee57848901518255600182019150602085019450602081019050610ec9565b86831015610f0b5784890151610f07601f891682610e14565b8355505b6001600288020188555050505b505050505050565b7f44656261746520646f6573206e6f742065786973740000000000000000000000600082015250565b6000610f56601583610a51565b9150610f6182610f20565b602082019050919050565b60006020820190508181036000830152610f8581610f49565b9050919050565b7f4e487b7100000000000000000000000000000000000000000000000000000000600052603260045260246000fd5b7f4e6f74206465626174652063726561746f720000000000000000000000000000600082015250565b6000610ff1601283610a51565b9150610ffc82610fbb565b602082019050919050565b6000602082019050818103600083015261102081610fe4565b9050919050565b7f496e76616c69642077696e6e657220636f646500000000000000000000000000600082015250565b600061105d601383610a51565b915061106882611027565b602082019050919050565b6000602082019050818103600083015261108c81611050565b9050919050565b7f416c726561647920636572746966696564000000000000000000000000000000600082015250565b60006110c9601183610a51565b91506110d482611093565b602082019050919050565b600060208201905081810360008301526110f8816110bc565b9050919050565b60006020820190506111146000830184610ad2565b9291505056fea2646970667358221220fb42cf3bac4903b92045eda9322dba3de9fc0966fcf2fdb56f3d2c6fb199f9a364736f6c634300081c0033",
  "linkReferences": {},
  "deployedLinkReferences": {}
}